:020000040800F2
:100000000000052085D90008D5D90008D5D90008F9
:10001000D5D90008D5D90008D5D9000800000000BE
:10002000000000000000000000000000315900083E
:10003000D5D9000800000000D159000805C2000809
:10004000D5D90008D5D90008D5D90008D5D90008D8
:10005000D5D90008D5D90008D5D90008D5D90008C8
:10006000D5D90008D5D90008D5D90008D5D90008B8
:10007000D5D90008D5D90008D5D90008D5D90008A8
:10008000D5D90008D5D90008D5D90008D5D9000898
:10009000D5D90008D5D90008D5D90008D5D9000888
:1000A000D5D90008D5D90008D5D90008D5D9000878
:1000B000D5D90008D5D90008D5D90008D5D9000868
:1000C000D5D90008D5D90008D5D90008D5D9000858
:1000D000D5D90008D5D90008D5D90008D5D9000848
:1000E000D5D90008D5D90008D5D90008D5D9000838
:1000F000D5D90008D5D90008D5D90008D5D9000828
:10010000D5D90008D5D90008D5D90008D5D9000817
:10011000D5D90008D5D900080DC20008D5D90008E6
:10012000D5D90008D5D90008D5D90008D5D90008F7
:10013000D5D900081DC20008D5D90008D5D90008B6
:10014000D5D90008D5D90008D5D900082DC2000896
:10015000D5D90008D5D90008D5D90008D5D90008C7
:10016000D5D90008D5D90008D5D90008D5D90008B7
:10017000D5D90008D5D90008D5D90008000000005D
:10018000D5D90008D5D90008D5D90008D5D9000897
:10019000D5D90008D5D90008D5D90008D5D9000887
:1001A000D5D90008D5D90008D5D90008D5D9000877
:1001B000D5D90008D5D90008D5D90008D5D9000867
:0801C000D5D90008D5D90008CB
:1001D00010B5054C237833B9044B13B10448AFF381
:1001E00000800123237010BD940000200000000057
:1001F000D4E300080C4B43B10C480D4910B5AFF3E4
:1002000000800C48036823B910BD0A48036833B95D
:100210007047094B002BF7D0BDE810401847064B3C
:10022000002BF5D0184700BF00000000D4E3000801
:1002300098000020940000200000000008B5D0F8CD
:100240007433DB6993F85220012A03D0022A19D0B3
:10025000022008BD0022DA6583F860200A2183F8B5
:100260006210C3F86320C3F86720C3F86B20C3F89B
:100270006F2083F86320012083F85000022283F866
:10028000522008BD04F06EFA08BD38B5D0F87433BA
:10029000DC6994F85230012B03D0022B21D00123CA
:1002A0001DE00823E365802384F860300A2384F886
:1002B00062300023C4F86330C4F86730C4F86B3090
:1002C000C4F86F30252384F86330012384F850305C
:1002D000022284F8522004F11002C4F88C2018463F
:1002E00038BD154604F03EFA03460028F7D1D4F88D
:1002F0008C10CA78887842EA0022487842EA0042A4
:10030000097842EA01622A60D4F88C10CA798979A6
:1003100042EA0122AA80E2E7F8B5D0F87433DC693A
:1003200094F85230012B03D0022B28D0022524E070
:100330002422E265802384F860300A2384F8623046
:100340000023C4F86730A4F86B30122084F86300EF
:10035000490184F8641084F8653084F8663084F8C4
:10036000672084F86830012584F85050022384F80F
:10037000523004F11003C4F88C302846F8BD1646FC
:1003800004F0F0F905460028F7D12222002130467A
:100390000DF070FBD4F88C301B7803F01F037370E2
:1003A000D4F88C301B785B093370D4F88C305B78D0
:1003B000DB09B370D4F88C3053F8082F5B68C6F8AB
:1003C0000320C6F80730D4F88C3053F8107F5868F3
:1003D0009968DB68F76030617161B361D4F88C3083
:1003E0001B6AC6F81D30C8E738B5D0F87433DC692D
:1003F00094F85230012B03D0022B2AD0022326E09E
:100400000E20E065802384F860300A2384F862308F
:100410000023C4F86730C4F86B30C4F86F3003228F
:1004200084F86320490184F8641084F8653084F806
:10043000663084F8670084F86830012384F850300F
:10044000022284F8522004F11002C4F88C201846CD
:1004500038BD154604F086F903460028F7D1D4F8D4
:100460008C20927802F00F022A70D4F88C20127B34
:100470006A70D4F88C20527BAA70E8E710B582B07D
:100480000192D0F87423D26992F85240012C03D023
:10049000022C37D0022033E004994902D1650021B3
:1004A00082F860100A2082F86200C2F86310C2F875
:1004B0006710C2F86B10C2F86F102A2182F863101F
:1004C0009DF8071082F865109DF8061082F86610F6
:1004D0009DF8051082F867109DF8041082F86810E6
:1004E0009DF8111082F86A109DF8101082F86B10B8
:1004F000012082F85000022182F85210C2F88C309C
:1005000002B010BD04F02EF9FAE710B582B00192E6
:10051000D0F87423D26992F85240012C03D0022CF7
:1005200038D0022034E004994902D165802182F854
:1005300060100A2182F862100021C2F86310C2F82C
:100540006710C2F86B10C2F86F10282182F8631090
:100550009DF8071082F865109DF8061082F8661065
:100560009DF8051082F867109DF8041082F8681055
:100570009DF8111082F86A109DF8101082F86B1027
:10058000012082F85000022182F85210C2F88C300B
:1005900002B010BD04F0E6F8FAE7000004290CD020
:1005A000052902D0022904D070470322054B1A7096
:1005B00070470222034B1A7070470122014B1A70D8
:1005C000F2E700BFB000002010B5074C0122074938
:1005D000204609F0B9F90649204609F0E9F9204614
:1005E00009F02AFA10BD00BFC83F00209D05000891
:1005F0000C0000202DE9F04105460F4616469846AE
:10060000069C2B68DB6937EA03030CBF0123002338
:10061000B3421ED1B4F1FF3FF3D02CB109F0D2FBAD
:10062000A0EB08008442ECD82A68136823F4D07346
:1006300013602A68936823F001039360202385F8F0
:10064000693085F86A30002385F868300320BDE8FA
:10065000F0810020BDE8F0812DE9F04182B01E4616
:1006600090F86930DBB2202B04D00223184602B088
:10067000BDE8F08104460D469046002A18BF0029C7
:100680004CD090F86830012B01D10223EEE7012312
:1006900080F868300023C366212380F8693009F0B0
:1006A00091FB0746A4F85080A4F8528003E0236829
:1006B0002A789A620135B4F852309BB2E3B1B4F8AB
:1006C00052309BB2013B9BB2A4F8523000963B469D
:1006D000002280212046FFF78DFF08BBA368B3F5F9
:1006E000805FE4D12369002BE1D1226835F8023B19
:1006F000C3F308039362DEE700963B4600224021E5
:100700002046FFF777FF034608B10323AEE7202218
:1007100084F86920002284F86820A7E70123A5E770
:100720000323A3E738B5044683680269134342698B
:100730001343C269134301680868A04A0240134387
:100740000B602268536823F44053E1680B43536005
:10075000A369226A134321688A6822F43062134332
:100760008B602568964B9D422BD0964B9D423CD08A
:10077000954B9D4252D0954B9D4267D0944B9D42E4
:100780007CD0944B9D4200F09480934B9D4200F0AE
:10079000AB80924B9D4200F0C2801023E269B2F51B
:1007A000004F00F0DB80082B00F26881DFE813F0D7
:1007B00031013C0147016601510166016601660194
:1007C0005C0103F59433D3F8903003F00303032B5B
:1007D00003D8DFE803F0BF0604081023DEE7022396
:1007E000DCE70423DAE70823D8E703F5FA33D3F884
:1007F000903003F00C030C2B08D8DFE803F0AD07B2
:1008000007070B070707090707070D001023C5E7B0
:100810000223C3E70423C1E70823BFE703F5F83346
:10082000D3F8903003F03003102B0DD005D9202BD6
:1008300008D0302B04D10823B0E70BB90023ADE773
:100840001023ABE70223A9E70423A7E703F5F63358
:10085000D3F8903003F0C003402B0DD005D9802B86
:1008600008D0C02B04D1082398E70BB9002395E7E3
:10087000102393E7022391E704238FE703F5F43372
:10088000D3F8903003F44073B3F5807F0FD007D9CD
:10089000B3F5007F09D0B3F5407F04D108237DE78D
:1008A0000BB900237AE7102378E7022376E70423C5
:1008B00074E703F59233D3F8903003F44063B3F553
:1008C000806F0FD007D9B3F5006F09D0B3F5406F33
:1008D00004D1082362E70BB901235FE710235DE72A
:1008E00002235BE7042359E703F5E033D3F89030A4
:1008F00003F44053B3F5805F0FD007D9B3F5005F21
:1009000009D0B3F5405F04D1082347E70BB90023B2
:1009100044E7102342E7022340E704233EE703F5C0
:10092000DE33D3F8903003F44043B3F5804F0FD05B
:1009300007D9B3F5004F09D0B3F5404F04D10823D0
:100940002CE70BB9002329E7102327E7022325E72B
:10095000042323E7012321E700231FE7082B55D8B1
:10096000DFE803F005172254405454544B000AF0BA
:10097000C5FF6268530803EB4003B3FBF2F39BB27D
:10098000002023F00F02C3F3420313432268D36015
:1009900038BD0AF0C3FF6268530803EB4003B3FBA2
:1009A000F2F39BB20020ECE762680D4B03EB5203BD
:1009B000B3FBF2F39BB20020E3E700BFF369FFEF64
:1009C000001001400044004000480040004C00403E
:1009D000005000400014014000780040007C0040BE
:1009E0000048E8010AF0AEFE6268530803EB4003DA
:1009F000B3FBF2F39BB20020C3E76268530803F530
:100A00008033B3FBF2F39BB20020BAE7012000234E
:100A1000B7E70AF073FF636800EB5300B0FBF3F035
:100A200080B2E860002038BD0AF078FF636800EB10
:100A30005300B0FBF3F080B2E860002038BD62687C
:100A40000F4B03EB5203B3FBF2F39BB2EB600020BE
:100A500038BD0AF077FE636800EB5300B0FBF3F09B
:100A600080B2E860002038BD6268530803F5004397
:100A7000B3FBF2F39BB2EB60002038BD012038BD20
:100A80000024F400436A13F0010F06D00268536893
:100A900023F40033816A0B435360436A13F0020F5F
:100AA00006D00268536823F48033C16A0B43536055
:100AB000436A13F0040F06D00268536823F48023BE
:100AC000016B0B435360436A13F0080F06D00268B2
:100AD000536823F40043416B0B435360436A13F0A4
:100AE000100F06D00268936823F48053816B0B4388
:100AF0009360436A13F0200F06D00268936823F4D2
:100B00000053C16B0B439360436A13F0400F0AD04C
:100B10000268536823F48013016C0B435360036C29
:100B2000B3F5801F0BD0436A13F0800F06D0026824
:100B3000536823F40023816C0B43536070470268B1
:100B4000536823F4C003416C0B435360EBE710B5CB
:100B500082B004460023C36609F034F922681268A3
:100B600012F0080F09D1202384F8693084F86A3024
:100B7000002084F8680002B010BD6FF07E4300933F
:100B8000034600224FF400112046FFF733FD0028F2
:100B9000E9D00320EFE778B310B5044690F8693048
:100BA0000BB3242384F869302268136823F001030F
:100BB00013602046FFF7B6FD01281FD0636ABBB95A
:100BC0002268536823F4904353602268936823F0AB
:100BD0002A0393602268136843F0010313602046E0
:100BE000FFF7B5FF10BD80F868300CF07BFCD8E74C
:100BF0002046FFF747FFE3E70120704710BD0000E4
:100C00000368B3F1A04F00D0704730B589B04FF4FE
:100C1000E8530393022304930024059403230693CB
:100C20000A230793154D03A928460CF0ABFD4FF49A
:100C3000007303930494059403A928460CF0A2FDC5
:100C40000F4B5A6B42F080025A635A6B02F08002DB
:100C50000192019A5A6C42F480425A645B6C03F42C
:100C600080430293029B22460521432005F036FD76
:100C7000432005F063FD09B030BD00BF0000024015
:100C80000038024008B5D0F8940208F0DAFF08BD39
:100C900008B5D0F8940208F0DDFF08BD08B5D0F81B
:100CA000940208F0F2FF08BD08B5D0F8940209F0EC
:100CB0000EF808BD90F8BC33012B01D0002070471E
:100CC00010B504461048C0F89442C4F8C0034FF071
:100CD000A0430360082383600323C36000230361F0
:100CE00002228261C36104F0E2FF40B9064805F0C8
:100CF000D8FC0146204608F0A1FF002010BDC42109
:100D0000024809F019F9F1E79843002030E400089F
:100D100008B5D0F8C00305F08AFC18B1022803D04A
:100D2000022008BD002008BD012008BD08B5D0F88C
:100D3000C00305F092FC18B1022803D0022008BDC0
:100D4000002008BD012008BD08B5D0F8C00305F09B
:100D5000ADFC18B1022803D0012008BD002008BD59
:100D6000022008BD08B5D0F8C00305F088FC18B112
:100D7000022803D0022008BD002008BD012008BDC4
:100D800008B5D0F8C00305F086FC08BD10B584B0E6
:100D9000D0F8C003BDF8204002949DF81C40019497
:100DA0009DF81840009404F037FF20B1022804D0C9
:100DB000022004B010BD0020FBE70120F9E708B5D0
:100DC000D0F8C00304F061FF18B1022803D002205C
:100DD00008BD002008BD012008BD10B584B0D0F8C2
:100DE000C0039DF824400394BDF820400294079C62
:100DF00001949DF81840009404F095FF20B102285A
:100E000004D0022004B010BD0020FBE70120F9E768
:100E100008B5D0F8C00305F037FC08BD08B5C820F8
:100E200008F0D6FF002008BD10B4D0F8C03301EBA5
:100E30008104E0000446184490F83B0048B901EBF7
:100E40008101C800034483F8512000205DF8044B61
:100E50007047234483F85020F7E7D0F8C03301EB04
:100E60008100C20010461A4492F83B2032B901EBCF
:100E70008101CA00134493F851007047034493F86A
:100E80005000704708B508F0A3FF08BD30B585B025
:100E90000021084607F0E0FF114900200860114AD0
:100EA0001060114B1860114C114D0295114D0195B8
:100EB000009020460CF0A4FB20460CF0C9FB94F8EF
:100EC0002F3013F0040F07D108480CF0D9FB074866
:100ED0000CF02DF905B030BD20460CF0BFFBF6E755
:100EE0007C460020804600208446002048460020A2
:100EF000DD8D00085D3E000800230A2B0CD803F1AD
:100F0000DE0200EB8202526812F4004F02D001337D
:100F1000DBB2F2E798B270474FF6FF70704710B53A
:100F200084B0BDF8204002949DF81C4001949DF8C7
:100F300018400094FFF72AFF002004B010BD08B548
:100F4000FFF73DFF002008BD38B504460D46FFF70A
:100F5000D3FF4FF6FF73984206D045F4004500F1E9
:100F6000DE0304EB83046560C0B238BD0A2906D8ED
:100F7000DE3100EB81014B68C3F30E034B600020B0
:100F800070470000254B1B682BE01B68ABB193F842
:100F90002F2002F005010529F7D159680029F4D066
:100FA00004689D686140294216D012F0020FECD10E
:100FB000DA689442E9D118460AE0194A106838B153
:100FC00090F82F2002F00502052A07D142680AB1E5
:100FD00030BC70471846FBE71846F9E71846F7E7B4
:100FE0001B6853B193F82F2002F005010529F7D1B2
:100FF00059680029F4D030B4D2E7094A10680028B3
:10100000E7D090F82F2002F00502052A04D14268AB
:10101000002ADED1184670471846704700B40020F9
:1010200004B400202DE9F8430546D0F8048098F870
:1010300000301A09042A04D000F010FA0020BDE89C
:10104000F8830F4603F00F039E00B8F8020001F08A
:10105000C0FF04462B89984216D36B899E4218D84C
:101060002B899C4215D8132E13D9D8F81030634A17
:101070005361D8F80C10116103F0F003E02B0CD091
:101080003C464FF001091CE00146284600F0AEFA4C
:10109000E3E7284600F0E2F9D0E797F82F3013F0A5
:1010A000010F24D07B68002B6BD1002420E0B9F124
:1010B000000F18D0524B1C684FF00009BC4214D0EE
:1010C000B4B194F82F3013F0010FF0D06368002B07
:1010D000EDD04A4A506983420AD0214608F03EFECC
:1010E0000028E4D004E02468E8E72468E8E7002466
:1010F000002C48D001231BB1404B1869002853D164
:10110000002C5FD0B8F8063023F0C0039BB23BB18F
:10111000284607F075FA054600288FD0D0F80480DD
:10112000364A14605760C2F8088098F8003003F01F
:101130000F039B0093817142284600F085F998F8CF
:101140000930062B4FD0112B40D0012B50D0214617
:101150002A4B586908F002FE78B9284B5B6903F006
:10116000F003E02B09D03146284600F072F9C5F8AB
:101170000480022128460BF039F8284600F06EF969
:1011800028E03C46B4E798F80930112B01D0012340
:10119000B1E708EB06035B88B3F5884F01D0012364
:1011A000A9E73C460023A6E7394608F0D7FD28B951
:1011B000124B1B6903F0F003E02BA1D1284600F08D
:1011C0004DF93BE7284600F049F937E7394628460C
:1011D00003F082FC094B00221A605A609A609A81DF
:1011E0001A615A612AE73946284606F0DFFAF1E724
:1011F000394628460AF06EFFECE700BF3046002073
:1012000000B400202DE9F04383B005460C9E002A6F
:1012100041D0894698461746142100F015F9002858
:1012200045D16C6884F808809DF82C3063723B6867
:101230002361452323709DF828306370288901F0CD
:10124000C8FE60800023A371E371DFF86C80B8F8FA
:10125000000001F0BEFEA080B8F800300133A8F80D
:101260000030B9F1000F12D0D9F80030E36000234C
:10127000A372E372F38C13B12A89934211D3736979
:101280003A4629463046984703B0BDE8F083094BFB
:101290001B68E360EBE743681B6902AF47F8043D56
:1012A000E8E73A463146284607F06CFAECE76FF07B
:1012B0000100E9E778E50008B200002030B585B00C
:1012C0000A9C15461AB109B10A6802B9211D029497
:1012D0009DF8242001929DF8202000922A46FFF7D5
:1012E00091FF05B030BD002818BF00293AD030B4B6
:1012F0000B460446002916DB88B2217B656803296A
:1013000018BF002919D1EA1A626004F110018A425B
:1013100010D39BB262891A446281228913442381CB
:10132000002030BC7047484280B261898842E4D9CD
:101330000120F6E765600120F3E7013989B2012950
:1013400001D90120EDE7002B06DB002A18BF002B96
:101350000ADDED1A6560DCE761898842F5D8ED1A8F
:101360006560D6E7002070470120DAE710B504F089
:101370007BFA0C4B1C78E4B201221A7004F080FA5C
:1013800004B110BD00221146074807F039FD0028BE
:10139000F7D004F069FA0022024B1A7004F070FAD8
:1013A000EFE700BF88460020E113000810B504F005
:1013B0005BFA0022084B1A7004F062FA074B1C68B3
:1013C00044B1206F08B9E468FAE701F081FE002318
:1013D000236710BD10BD00BF884600209046002046
:1013E00008B5FFF7E3FF08BD70B4039C042827D8B5
:1013F000DFE800F0030B05070900362006E00E20A9
:1014000004E0002002E0002000E02220033020F071
:1014100003000E18BDF81050AE4213D800251D6011
:101420005CB12044586002205873198159811A73A5
:101430000122DA81184670BC704700205860F2E73C
:101440000020F8E70020F6E708B50022FFF74BFF81
:1014500008BD08B50122FFF746FF08BD70B570B39F
:101460000446002605E02369204698470136F6B277
:101470002C462CB304F0F8F9E589013DADB2E581C5
:1014800004F0FEF9CDB92568237B627B12F0020FD0
:10149000E9D1032B07D0013B9BB2012B08D9204691
:1014A00007F026FBE2E721460C2004F039F9DDE7DE
:1014B00021460B2004F034F9D8E70024D9E70026B0
:1014C000304670BD2DE9F041042800F28B80DFE842
:1014D00000F0030B05070900362406E00E2404E0A3
:1014E000002402E0002400E0222416460D46032AD0
:1014F0007AD8DFE802F0486A6A020C2004F002F9A8
:101500000746002835D006730023036004F110035A
:101510000344033323F0030343600581E11C21F0FE
:101520000301C1F51471A94228BF294689B241813E
:101530000123C3816D1A8046002D3FDD0C2004F08D
:10154000E1F80446C0B10673002343730360C8F892
:101550000000ABB20381B3F5147F28BF4FF41473BE
:10156000438100F1100242600122C281ED1A8046DF
:10157000E2E7FFF7FBFE25E0FFF7F8FE3846FFF74E
:101580006DFF27461EE004F1130020F0030083B234
:10159000C81C80B220F00300184480B207F050FB52
:1015A000074678B104F110030344033323F0030327
:1015B0004360058145810023036006730123FB819D
:1015C00000237B733846BDE8F0810B2004F09AF8C5
:1015D00007460028F6D0002343600581458103605B
:1015E0000673EBE70027EDE70027EBE738B5044685
:1015F000008988421BD90D4606E0EB1A9DB20B1AF2
:10160000228913442381246863899D42F5D8227B73
:101610002AB99D4203D0637B13F0020F08D0658185
:101620002581206808B1FFF719FF0023236038BD2A
:1016300063681B1B15FA83F189B2204607F086FA0E
:101640000446ECE7002302E001339BB20068002867
:10165000FAD11846704748B110B5044604F004F9B1
:10166000E3890133E38104F00BF910BD704710B436
:1016700003460C46002918BF002805D10CE022893A
:10168000188902441A810B4619680029F7D11A8972
:1016900021890A441A811C605DF8044B704710B51B
:1016A0000C46FFF7E4FF2046FFF7D5FF10BD0029E9
:1016B00018BF002853D02DE9F04107460D46028996
:1016C0000B899A424ED34FF00008464610E09B1B10
:1016D0009CB215E09E4227D01DB16A892B899A429F
:1016E0002CD01FB17A893B899A422ED0002D33D05D
:1016F0007B89991B6C89A4EB08029142E7DB94B2C9
:10170000786869682246414430440CF0A8F92644C0
:10171000B6B244441FFA84F87B896A899045D9D3CC
:101720002D684FF00008D5E73F68B7FA87F35B09EB
:10173000002D08BF0023CBB90026CDE72B68002B76
:10174000CFD06FF00500BDE8F0813B68002BCDD015
:101750006FF00500BDE8F0810020BDE8F0816FF07A
:101760000F0070476FF00F00BDE8F0816FF00F00C1
:10177000BDE8F0812DE9F04130B30F4690460546B3
:1017800031B3002613E06A89D21A94B2A04500D280
:101790004446696822461944B8190CF060F9264499
:1017A000B6B2A8EB04041FFA84F800232D68B8F140
:1017B000000F18BF002D08D0002BE4D069898B42A0
:1017C000E1D35B1A9BB2F1E700263046BDE8F08119
:1017D0000026FAE710B40B7803704B7843708B78CF
:1017E000CC7803EB042343800B7903714B7943716D
:1017F0008B798371CB79C371082A16D90B7A4A7A0F
:1018000003EB022303818B7ACA7A03EB0223438121
:101810000B7B4A7B03EB022383818B7B8373CB7B24
:10182000C3730B7C03744B7C43745DF8044B7047AB
:101830000B7803704B7843708B788370CB78C370D0
:101840000B7903714B7943718B798371CB79C371B8
:101850000B7A037270470B7803704B7843708B7868
:101860008370CB78C3700B794A7903EB02238380B2
:101870008B79837170474378032B00D0704710B485
:101880000478023CA242A8BF224694B2002305E09D
:10189000C218927801F8012B02339BB2A342F7D30E
:1018A00000230B705DF8044BE8E730B583B00446C5
:1018B000037E013B0A2B00F23A81DFE813F00B00B4
:1018C00015004400500077008500BA00C600ED0006
:1018D000FB002401427900F1100102F0D7FA022343
:1018E0002376012003B030BD4179FFF791FA01283A
:1018F00003D004281DD00120F4E7227CE38A7BB1C9
:1019000012F0800F09D10523237600220321D4F899
:10191000C8030AF09FF90120E4E703232376F4E7E4
:1019200012F0800F02D107232376EEE709232376F6
:10193000EBE70B23237600220321D4F8C8030AF037
:1019400089F90120CEE7D0F8B833C38103798289C1
:10195000816802F0C2FA042323760120C2E70179EC
:10196000FFF756FA0546012805D0052D0CD0042DA9
:1019700012D00120B6E70923237600220321D4F8F0
:10198000C8030AF067F9F0E700220321D4F8C8037E
:101990000AF060F90320A5E70B2323760022032138
:1019A000D4F8C8030AF056F901209BE743798289ED
:1019B00001250095816802F07AFAD4F8B833E38102
:1019C0000623237628468DE74179FFF721FA01287F
:1019D00007D005280FD0022817D004281FD00120D7
:1019E00080E70723237600220321D4F8C8030AF0F6
:1019F00031F9012076E70C23237600220321D4F865
:101A0000C8030AF027F903206CE705232376002298
:101A10000321D4F8C8030AF01DF9012062E70B2363
:101A2000237600220321D4F8C8030AF013F9022018
:101A300058E703790022114602F04FFAD4F8B83380
:101A4000E3810823237601204CE70179FFF7E0F9D1
:101A5000012805D004280DD0052815D0012041E724
:101A60000D23237600220321D4F8C8030AF0F2F8EC
:101A7000002037E70B23237600220321D4F8C80384
:101A80000AF0E8F801202DE700220321D4F8C8036A
:101A90000AF0E0F8032025E74379012500950022AC
:101AA000114602F004FAD4F8B833E3810A2323760E
:101AB000284617E74179FFF7ABF9012805D002283E
:101AC0000DD0042815D001200CE70D232376002229
:101AD0000321D4F8C8030AF0BDF8002002E7092367
:101AE000237600220321D4F8C8030AF0B3F80120BA
:101AF000F8E60B23237600220321D4F8C8030AF06A
:101B0000A9F80120EEE6437E0133DBB24376022BD7
:101B100007D9D0F8C4330621984700236376022002
:101B2000E0E6FFF703F901202076A070DAE6012055
:101B3000D8E603780A8813440B800378184470476A
:101B40002DE9F04383B00B7803704B7843708B78AA
:101B5000CC7803EB042343800B7903714B794371F9
:101B60008B798371CB79C3710B7A0372092A48D9B7
:101B700005460923ADF806300C460026012E40DC50
:101B80006A88BDF806309A423BD90DF1060120461D
:101B9000FFF7CFFF04464378042BEFD1B1461A205C
:101BA00000FB06F00830284421460230FFF740FED3
:101BB0000027B8461A2303FB09539B7B9F421DDA7B
:101BC0006A88BDF806309A4218D90DF10601204600
:101BD000FFF7AFFF04464378052BEAD108F101086F
:101BE0001A2000FB09F000EBC80008302844214609
:101BF0000430FFF730FE01377FB2DAE7013676B204
:101C0000BCE703B0BDE8F08338B504468378012B08
:101C100003D0022B0FD001250BE0816082810125CA
:101C200005760223837000220321D0F8C8030AF04E
:101C300011F8284638BDFFF738FE054620B10228C6
:101C4000F7D10122A270F4E70122A27000222276CD
:101C5000EFE738B5BDF810508478012C04D02A463F
:101C60001946FFF7D1FF38BD61F07F0404740621E7
:101C70004174428202F47F44B4F5407F03D00022D5
:101C80008282C582EBE740F209428282F9E7F0B531
:101C900083B0044600F58E750E4600912B464FF436
:101CA00080720021FFF7D5FF074610B1384603B018
:101CB000F0BD3246294604F54870FFF78BFDF5E785
:101CC000F0B583B004460E4600F11C0500912B468A
:101CD0004FF400720021FFF7BCFF074610B13846F1
:101CE00003B0F0BD3246294604F23230FFF728FF38
:101CF000F5E7F0B583B017461D4600F58E740093E6
:101D0000234641F440720021FFF7A3FF064610B1BD
:101D1000304603B0F0BD2A4639462046FFF7ABFDFA
:101D2000F6E708B58378012B04D000221146FFF7AF
:101D30006BFF08BD00230374052242744182838235
:101D4000C382F2E708B58378012B04D00022114644
:101D5000FFF75AFF08BD0023037409224274418231
:101D60008382C382F2E708B58378012B04D0002276
:101D70001146FFF749FF08BD022303740123437492
:101D8000002343828182C382F1E7000000230133F4
:101D90000C4A934211D80269002AF8DA036943F029
:101DA0000103036100230133064A934207D8026905
:101DB00012F0010FF7D10020704703207047032075
:101DC000704700BF400D030084B010B5044603A85F
:101DD00080E80E00089B012B11D0E36843F040031C
:101DE000E3602046FFF7D2FF4FF48033A363069BE6
:101DF000012B1CD00020BDE8104004B07047A36B3D
:101E000023F48033A363E2680D4B1340E360E3687F
:101E100023F44013E3600F9B012B03D02046FFF710
:101E2000B5FFE4E7E36843F48013E360F6E7A368F3
:101E300043F00603A360A36843F02003A360D9E73F
:101E4000BFFFBDFF836843F001038360002070473C
:101E5000836823F0010383600020704708B5C368DE
:101E600023F0C043C360012909D019B9C36843F006
:101E70008043C360322007F0ABFF002008BDC36879
:101E800043F00053C360F5E7890141F0200101618F
:101E900000230133054A934205D8026912F0200F4E
:101EA000F7D1002070470320704700BF400D0300AA
:101EB0001023036100230133054A934205D80269C8
:101EC00012F0100FF7D1002070470320704700BFB9
:101ED000400D030070B49DF80C4064B903339E10AC
:101EE00007E000EB023303F5805351F8045B1D60FB
:101EF0000134B442F5D3002070BC70470332921015
:101F0000002393420CD210B400F58054246841F8A9
:101F1000044B01339342F7D308465DF8044B7047F6
:101F2000084670474269806910407047406900F078
:101F30000100704710B400F58064D0F8003423F03D
:101F40000303C0F80034D0F8003401F00302134357
:101F5000C0F80034012905D0022907D000205DF81F
:101F6000044B70474BF680336360F7E741F27073C0
:101F70006360F3E710B582B00446D0F840340193B3
:101F8000019B23F02E030193019B43F48073C0F85F
:101F90004034642007F01CFF019B23F48073C4F8D5
:101FA00040340A2007F014FF002002B010BD82B0B8
:101FB000D0F840340193019B23F02E030193019B41
:101FC00013F4805F01D101290CD0019B13F4805FD1
:101FD00005D021B9019B23F48053C0F84034002080
:101FE00002B07047019B43F48053C0F84034ECE7E3
:101FF00084B038B5044605A880E80E0025460023C5
:10200000C4F8003EA36B43F40013A363079B032BA8
:102010000ED0D4F8003423F00403C4F800341021A7
:102020002046FFF731FF2046FFF742FF002213E072
:10203000B4F1A04FEDD0D4F8003443F00403C4F859
:102040000034ECE705EB42134FF0FF31C3F80815FD
:102050000021C3F80C150132069B9A42F2D30121EC
:102060002046FFF7A4FFC82007F0B2FE0023A361BB
:102070004FF0FF336361B4F1A04F17D04FF40073FA
:10208000636203F18073A3620D4BC4F80031089BB7
:102090001BB9A36943F01003A361A269094B134361
:1020A000A3610020BDE8384004B07047802363621C
:1020B00003F5C003A362044BC4F80031E7E700BF97
:1020C0000003E000080020A3E000400082B0D0F848
:1020D000403401930198C0F3414002B0704700F5CD
:1020E0008060806880B27047F0B59DF8184000EBC2
:1020F000411505F5A0664FF0FF37B760032C1CD8DB
:10210000DFE804F0024F021540F29D47F76012F03D
:10211000800F07D1B0F1A04F0FD0F76847F06007EC
:10212000F7600AE0F76847F48077F76005E040F26F
:102130009D67F76012F0800F2ED100F5806ED0F809
:102140001864012707FA01F13143C0F818148169B6
:1021500041F0007181619B0503F0FE53D10201F44F
:10216000F0410B4312F0800F26D100221A439DF854
:102170001430022B23D000231343A20402F4402284
:102180001343BDF81C20C2F30A021343C5F80035FF
:10219000032C17D00020F0BDF76847F48077F76074
:1021A000CBE740F22527F76012F0800FC5D0F76823
:1021B00047F4C077F760C0E74FF40042D6E74FF42A
:1021C0000033D9E7D5F8003543F00053C5F80035A2
:1021D000E0E700F58060406980B2704710B400EB22
:1021E000411101F5A064D1F8003513F4402F2BD034
:1021F000D1F80035C3F38143022B25D0D1F8003547
:1022000043F08043C1F80035D0F810349BB2002B66
:1022100048D1D1F8003523F00043C1F80035D1F89A
:10222000003543F00043C1F80035D1F8003523F400
:102230000043C1F8003500230133B3F57A7F26D877
:102240002268002AF8DB22E0D1F8003543F0804311
:10225000C1F80035C36A9BB2EBB9D1F8003523F061
:102260000043C1F80035D1F8003543F00043C1F810
:102270000035D1F8003523F40043C1F800350023C0
:102280000133B3F57A7F02D82268002AF8DB0020F8
:102290005DF8044B7047D1F8003543F00043C1F8B6
:1022A0000035F4E7D1F8003543F00043C1F80035BC
:1022B000EDE7000000EB4111064AC1F81025D1F806
:1022C000003523F0804343F00043C1F8003500207F
:1022D000704700BF0000088070B582B0B0F1A04F19
:1022E00007D00B792BB912B94B79012B11D0012AE8
:1022F00013D00B69EBB10C892344013BB3FBF4F31E
:102300009BB2B3F5807F15D924020C614FF4807322
:1023100010E04978FFF7CEFF76E04B7800EB4313EF
:10232000D3F80C4524F06004C3F80C4500234B712E
:10233000DFE70123CC781CB10C8904FB03F40C61AA
:102340004D7800EB45150C69C4F31204364E06EACD
:10235000C34323438C7A640704F0C0442343C5F885
:10236000103505F5A0652AB14B7800EB4313CC6816
:10237000C3F8144500F58066B36813F0010F4B787D
:1023800000EB4313D3F8004524F00054C3F8004594
:102390004B7800EB4313D3F800450CBF4FF00055CA
:1023A00000252C43C3F800454C7800EB4414D4F8C6
:1023B00000551E4B1D601D6825F080451D601D6881
:1023C00045F000451D601B68C4F80035E2B9CB78C4
:1023D000D3B90B69C3B1CA79032A0ED8DFE802F07A
:1023E000021702170333C26A92B2C3F38F039342F8
:1023F00003D9836943F0200383610B8A4A78C96853
:1024000000240094FFF766FD002002B070BD033386
:10241000326992B2C3F38F039342EED9836943F0DA
:1024200080638361E9E700BF0000F81FB40000206B
:1024300038B50446FFF70CFD10212046FFF724FDB8
:102440002046FFF735FD00230BE004EB4311D1F8E4
:10245000002522F0802242F08042C1F8002501339D
:10246000DBB20F2BF1D90023184601E00130C0B2D6
:102470000F2813D804EB401505F5A061D5F8002509
:1024800022F4004242F04042C5F800250133B3F582
:102490007A7FEBD80A68002AF8DBE7E74FF0FF33D2
:1024A000C4F8143463612046FFF7CCFC002038BD2B
:1024B000F0B583B00446036813F0010F0CD0AF4BA6
:1024C0009A6822F400029A609A68416B0A439A6003
:1024D000436BC3B1002700E00027236813F4002FEB
:1024E00015D0A64AD2F88C3023F44013E16B0B438D
:1024F000C2F88C30E36BB3F5801F06D0002B00F0E0
:102500001B81002504E00127E7E70127F6E7002506
:10251000236813F4801F0FD0984AD2F88C3023F42C
:102520004003216C0B43C2F88C30236CB3F5800F51
:1025300000F0048103B90125236813F0807F00D0E7
:10254000012713F0200F40F0FB80236813F0100FD9
:102550000CD08A4BD3F88C2022F08072C3F88C20E8
:10256000D3F88C20A16B0A43C3F88C20236813F4A2
:10257000804F08D0814AD2F8903023F44033616E06
:102580000B43C2F89030236813F4004F08D07B4A05
:10259000D2F8903023F44023A16E0B43C2F8903060
:1025A000236813F4803F08D0744AD2F8903023F4A3
:1025B0004013E16E0B43C2F89030236813F4003FE0
:1025C00008D06E4AD2F8903023F44003216F0B43B9
:1025D000C2F89030236813F0400F08D0674AD2F851
:1025E000903023F00303616C0B43C2F890302368F2
:1025F00013F0800F08D0614AD2F8903023F00C031A
:10260000A16C0B43C2F89030236813F4807F08D08C
:102610005A4AD2F8903023F03003E16C0B43C2F8F1
:102620009030236813F4007F08D0544AD2F89030D9
:1026300023F0C003216D0B43C2F89030236813F4DC
:10264000806F08D04D4AD2F8903023F44073616D0A
:102650000B43C2F89030236813F4006F08D0474A48
:10266000D2F8903023F44063A16D0B43C2F8903050
:10267000236813F4805F08D0404AD2F8903023F4E6
:102680004053E16D0B43C2F89030236813F4005FB0
:1026900008D03A4AD2F8903023F44043216E0B43DD
:1026A000C2F89030236813F4800F08D0334AD2F870
:1026B000903023F08063A16F0B43C2F89030236801
:1026C00013F4001F0DD02D4AD2F8903023F0006390
:1026D000E16F0B43C2F89030E36FB3F1006F00F08D
:1026E0009980236813F0080F00D0012513F4802F80
:1026F00008D0224AD2F8903023F04073616F0B4328
:10270000C2F89030236813F4000F09D01B4AD2F8A6
:10271000903023F08053D4F880100B43C2F89030EF
:10272000002F79D12368B3F1007F75D0002D40F0E0
:102730000781002003B0F0BD0125E9E60127F9E695
:102740000E4B1A6C42F080521A641B6C03F08053DB
:102750000193019B0A4A136843F48073136007F0E6
:1027600031FB0646064B1B6813F4807F0AD107F045
:1027700029FB801B6428F5D90320DBE700380240E1
:1027800000700040B34B1B6F13F4407315D0226BE5
:1027900002F44072934210D0AE4B1A6F22F4407292
:1027A000196F41F480311967196F21F4803119676D
:1027B0001A671B6F13F0010F12D1236B03F44072E1
:1027C000B2F5407F1DD0A34A936823F4F8139360B9
:1027D000A0490B6F226BC2F30B0213430B67B4E6E5
:1027E00007F0F0FA06469B4B1B6F13F0020FE4D183
:1027F00007F0E8FA801B41F288339842F3D90320AE
:1028000098E79448826822F4F812934919400A43E1
:102810008260DDE7012564E78E4A136823F0806358
:10282000136007F0CFFA06468A4B1B6813F0006F5F
:1028300006D007F0C7FA801B6428F5D9032079E792
:10284000236813F0010F13D0636B8BB9814AD2F860
:102850008430D2F88410606803F4403343EA801374
:1028600001F070610B43A16843EA0173C2F8843040
:10287000236813F4002F03D0E26BB2F5801F43D01E
:1028800013F4801F03D0236CB3F5800F3CD0236872
:1028900013F0807F11D06F4AD2F88400D2F88410F0
:1028A000666823691B0443EA861300F070600343E3
:1028B00001F0E0410B43C2F88430236813F0007F3D
:1028C0000DD0626823691B0443EA8213E26843EA7D
:1028D0000263A26843EA02735E4AC2F884305D4A2A
:1028E000136843F08063136007F06CFA0646594B97
:1028F0001B6813F0006F7FF419AF07F063FA801BB9
:102900006428F4D9032015E7524AD2F88430D2F86B
:102910008410606803F4403343EA8013E06843EABC
:10292000006301F0E0410B43C2F88430D2F88C30F0
:1029300023F01F03616A01390B43C2F88C30A6E70C
:10294000444A136823F08053136007F03BFA0546AE
:10295000404B1B6813F0005F06D007F033FA401BB2
:102960006428F5D90320E5E6236813F4002F01D08D
:10297000E26B22B113F4801F1DD0236CDBB9354A02
:10298000D2F88830D2F88810606903F4403343EA03
:102990008013A06943EA006301F0E0410B43C2F8F1
:1029A0008830D2F88C3023F4F853A16A013943EA15
:1029B0000123C2F88C30236813F4001F03D0E36FA7
:1029C000B3F1006F31D0236813F0080F19D0214AFA
:1029D000D2F88810D2F88830606903F4403343EAB3
:1029E000801301F070610B43E16943EA0173C2F89F
:1029F0008830D2F88C3023F44033E16A0B43C2F8BC
:102A00008C30144A136843F08053136007F0DAF9EE
:102A10000446104B1B6813F0005F19D107F0D2F980
:102A2000001B6428F5D9032084E60A4AD2F88800FE
:102A3000D2F888106569236A1B0443EA851300F005
:102A40007060034301F0E0410B43C2F88830BAE7FD
:102A500000206FE600380240FFFCFF0F124A12F020
:102A6000070F1ED0D11D21F00701C1F5705313448B
:102A70000A460E480260002141601344083B23F0DF
:102A800007030B48036059601960991A516013607D
:102A9000084B1960084B19604FF00042074B1A6051
:102AA00070474FF47053E4E7BC000020C83C00209E
:102AB000B8000020C43C0020C03C0020BC3C0020EA
:102AC00010B4134B1A6882421BD359685C18A04299
:102AD00003D1406801445960184641684418A24235
:102AE00013D10C4C2468A2420DD0526811444160AD
:102AF0001A6812680260984200D018605DF8044BB2
:102B000070471346DEE70460F5E70260F3E700BFB5
:102B1000C83C0020B800002070B5044607F074FCE3
:102B20003D4B1B68CBB13D4B1B681C4269D1BCB10E
:102B3000083414F0070F13D024F00704083404F00D
:102B400007036BB14FF0500372B683F31188BFF3E4
:102B50006F8FBFF34F8F62B6FEE7FFF77FFFE2E7AD
:102B6000002C50D02E4B1B689C424ED82D4B1D681C
:102B700001E02B4615466A68944202D92A68002A69
:102B8000F7D1254A1268954241D01E6808362A6856
:102B90001A606B681B1B102B12D9281910F0070F35
:102BA0000AD04FF0500372B683F31188BFF36F8FD2
:102BB000BFF34F8F62B6FEE743606C60FFF780FFA4
:102BC0006A6817490B689B1A0B60174909688B42A2
:102BD00001D215490B60114B1B6813436B60002336
:102BE0002B6007F0B9FC16F0070F12D04FF050031E
:102BF00072B683F31188BFF36F8FBFF34F8F62B646
:102C0000FEE70026EDE70026EBE70026E9E70026D1
:102C1000E7E7304670BD00BFB8000020BC3C002094
:102C2000C03C0020C83C0020C43C0020002834D018
:102C300038B50446A0F1080550F8042C1749096876
:102C40000A420AD14FF0500372B683F31188BFF3E2
:102C50006F8FBFF34F8F62B6FEE750F8080C50B18C
:102C60004FF0500372B683F31188BFF36F8FBFF339
:102C70004F8F62B6FEE722EA010244F8042C07F007
:102C8000C3FB54F8041C064A13680B44136028461F
:102C9000FFF716FF07F060FC38BD7047BC3C002012
:102CA000C03C002070470268D36843F00103D36042
:102CB0000268136843F001031360002070477047F7
:102CC00070477047704710B5044603681A6912F0E0
:102CD000020F11D0DA6812F0020F0DD06FF002026D
:102CE0001A610123037703689B6913F0030F79D0FE
:102CF000FFF7E6FF0023237723681A6912F0040F19
:102D000012D0DA6812F0040F0ED06FF004021A61CC
:102D10000223237723689B6913F4407F68D0204601
:102D2000FFF7CEFF0023237723681A6912F0080FFC
:102D300012D0DA6812F0080F0ED06FF008021A6194
:102D4000042323772368DB6913F0030F57D0204651
:102D5000FFF7B6FF0023237723681A6912F0100FDC
:102D600012D0DA6812F0100F0ED06FF010021A6154
:102D7000082323772368DB6913F4407F46D020467D
:102D8000FFF79EFF0023237723681A6912F0010FD3
:102D900003D0DA6812F0010F3FD123681A6912F0EC
:102DA000800F03D0DA6812F0800F3DD123681A69D2
:102DB00012F4807F03D0DA6812F0800F3BD12368D1
:102DC0001A6912F0400F03D0DA6812F0400F39D1BF
:102DD00023681A6912F0200F03D0DA6812F0200F6E
:102DE00037D110BDFFF76BFF2046FFF76AFF81E781
:102DF0002046FFF764FF2046FFF763FF92E7204677
:102E0000FFF75DFF2046FFF75CFFA3E72046FFF7D3
:102E100056FF2046FFF755FFB4E76FF001021A6135
:102E2000204607F07DF8B8E76FF080021A6120466F
:102E300000F02BFEBAE76FF080021A61204600F026
:102E400024FEBCE76FF040021A612046FFF73AFF0C
:102E5000BEE76FF020021A61204600F015FEC0E7C1
:102E600070B40368474A904214BF00220122B0F1B7
:102E7000804F14BF144642F00104D4B9424DA84219
:102E800014BF00250125414EB04254D0002D52D12F
:102E900005F1804505F58235A84214BF00250125BE
:102EA00006F50066B04202D00DB9002502E001250A
:102EB00000E001251DB123F070034D682B43002C69
:102EC0003DD1314CA04214BF002401242F4DA84213
:102ED00050D0002C4ED104F1804404F58234A0423D
:102EE00014BF0024012405F50065A84244D0002C3D
:102EF00042D1274CA04214BF0024012405F59A3585
:102F0000A8423BD0002C39D1224CA04214BF00244F
:102F1000012405F50065A84232D0002C30D11E4CAA
:102F2000A04214BF00240124A5F59635A84204D080
:102F30001CB9002404E00125BCE7012400E00124C1
:102F40001CB123F44073CC68234323F080034C6905
:102F5000234303608B68C3620B6883620F4B984204
:102F600008BF42F001020AB10B6903630123436108
:102F700070BC70470124E3E70124E1E70124DFE7A7
:102F80000124DDE70000014000080040000400408B
:102F900000440140001800400020004000040140AF
:102FA000A8B110B5044690F83D305BB1022384F817
:102FB0003D30211D2068FFF753FF012384F83D3089
:102FC000002010BD80F83C30FFF76CFEEEE70120DA
:102FD0007047030A43EA002080B27047030203F4FB
:102FE0007F0343EA0063020A02F47F42134343EA89
:102FF0001060704700E0C06828B1836F8B42FAD13F
:1030000000238367F7E7704738B50546012407E0DA
:10301000054B53F8243029461868FFF7EBFF0134BD
:10302000032CF5D938BD00BF50E40008704730B418
:10303000456A048D2A19C16A438EB3F5866F01D99A
:103040004FF486630B44D31A002B03DB4485501ADC
:1030500030BC70476B1A002B03DD002242851046FE
:10306000F6E7491B41850020F2E710B50446027DD2
:10307000038D194489B20185B1F5066F09D94FF462
:10308000066303852046FFF7D2FFB0F5067F0ADA14
:1030900010BD0029F6D1092A18BF072AF2D14FF432
:1030A00006630385EEE7A37E43F00203A376204682
:1030B00002F072F8ECE750B110B50446406808B170
:1030C000FEF7CCF92146032002F02AFB10BD704721
:1030D00038B110B50468FFF7EEFF2046002CF9D197
:1030E00010BD704738B50546032002F00BFB0446BF
:1030F00050B128686968AA68EB6820606160A260C6
:10310000E3606068FEF7A7FA204638BD38B5037D56
:10311000002B18BF0A2B1AD0012B18D00446406F81
:1031200018B1FEF79BF900236367206FFFF7D0FF0C
:10313000002525674FF6FF732386A06EFFF7C8FFB3
:10314000E06EFFF7C5FFA566E566A4F8645038BDDC
:103150002DE9F04182B0A64A136801331360A54AF5
:10316000137801331370A44B1C68002600E0E46858
:10317000002C00F03A81217D627F9E4B1B789A42A1
:10318000F5D06377022916D094F842300C2B5ED02C
:1031900094F8955035B3013D984B5A5D94F89430AE
:1031A0009A4202D9013384F8943094F894309A42C8
:1031B00007D900254CE094F84230062BE4D10125D4
:1031C00046E0204602F0E2F900285ED1002384F8B0
:1031D000943094F89530062B59D8013384F8953003
:1031E000002535E0B4F93020002A01DB01322286C7
:1031F000E26E6AB3B4F93000B4F94020904227DBA4
:1032000002290BD0B4F93C10B4F93E2002EBE102E4
:103210007B49CB5C02FA03F3A4F8403000232386F9
:10322000B4F85C30B4F84820934228BF13465B08DA
:10323000A4F84A30618E4A0092B2934201D2A4F8B7
:103240004A20A4F84810204602F004F900E00125C5
:10325000237D062B1DD0227A12F0080F3FD0072BBA
:1032600018BF042B6DD1624B1A68236AD21AD4F8A6
:103270009010644B0B446448A0FB0303B2EB531F54
:1032800014D90135EDB201272AE00025E0E7002539
:10329000DEE7A27E12F0100FDDD0216A544A1268D8
:1032A000521A282AD7D90135EDB2D4E794F89630CE
:1032B000564800FB03135449A1FB0313B2EB531F01
:1032C00001D800270CE0204602F034F900283AD15A
:1032D00094F89630013384F89630002700E00027F8
:1032E000206F50B1424B1A68236AD21AB4F94030A9
:1032F00003EB430359008A4227D2237D032B29D0B5
:10330000092B30D0002D37D1E568E37E0133DBB2E5
:10331000E376227F934265D30023E3763C4A137021
:10332000D4F88830002B55D0214620699847384B77
:103330001B78002B7FF417AF00284DD026462C4673
:1033400016E70027CCE70027CAE7FFF7C1FE0023F6
:103350002367D2E7216A264A1268521A282ACFD94F
:103360000135EDB2CCE7226A214B1B689B1AF02B8A
:10337000C8D90135EDB2C5E7D4F88C502046FFF727
:10338000C5FEC6B1E368F360CFB9D4F81080E76832
:103390002146012002F0C4F900221D4B1A701DB114
:1033A0006FF00C014046A847194B1B78002B7FF4A7
:1033B000DAAE3C46DCE6E2680F4B1A60E4E7616A8D
:1033C000E06C238B0193E38A0093231D224601F0D6
:1033D000FDFFDAE70020AAE7204601F0DDFE2646E1
:1033E0002C46C5E626462C46C2E60A4B1D6817E069
:1033F00094460020D13C00209046002060E4000864
:1034000040E40008B84C0A00D34D6210F8240100D3
:103410008C460020A0460020012353B92C46ED68BD
:10342000C5B12A6A0D4B1B689B1AF02BF4D80023F8
:10343000F3E72846FFF76AFE44B1EB68E360EE6805
:103440002946012002F06CF93546E9E7EA68044BA9
:103450001A60F4E702B0BDE8F08100BF9446002096
:10346000A046002010B50C4603688B4205D04BB136
:10347000DA68944204D01346F9E7DB68036001E0A0
:10348000E268DA600023E3602046FFF73FFE237D19
:103490000A2B18BF012B03D0A37E13F0010F03D119
:1034A00000232375E38210BD43F00203A376204678
:1034B00001F072FEF4E7000030B583B0044609B3B2
:1034C000037D072B18BF042B1CD1436FB3B1616A76
:1034D000E06C238B0193E38A0093231D224601F0C5
:1034E00075FF2046FFF712FE4F4B1B689C4213D01E
:1034F000C3B1DA68944213D01346F9E7038DB3F5EC
:10350000066FE4D1237D072B00F28780DFE803F00C
:103510002A4F5D6A7385857CDA68434B1A6001E047
:10352000E268DA600023E3600122404B1A70237DD9
:10353000042B09D03E4B1B689C420FD02146012032
:1035400002F0EEF800252FE00A232375394B1A68A4
:10355000E2601C6008F0FAFC002525E004F036FB70
:10356000002521E0E38A8BB1334B1B689C4205D0D8
:1035700053B1DA68944205D01346F9E7DA682E4B66
:103580001A6001E0E268DA600023E360214601206E
:1035900002F0C6F800242546231C18BF0123002D85
:1035A00018BF0023002B3BD1284603B030BD204676
:1035B000FFF72AFD21462148FFF754FF214602204C
:1035C00002F0AEF800242546E6E721461648FFF74C
:1035D00049FF0120154B1870214602F0A1F8002484
:1035E0002546D9E7204601F07BFD05460028D3D1CA
:1035F00005232375D0E7204601F072FD054600281B
:10360000CAD105232375C7E7204601F069FD0546A9
:103610000028C1D109232375BEE700252C46BBE74E
:10362000204601F0B9FDBFE7904600208C460020FF
:103630004CA80020A04600209C4600209846002070
:1036400008B5037D012B03D0837E43F010038376FE
:103650000121FFF731FF08BD10B5084642B11446FD
:103660001189FFF702FD2046FDF7F8FE002010BD8E
:103670000BB1002010BDFFF7E3FF10BDF8B5044605
:10368000466F777B00234367D0F88050DDB1324628
:1036900001460069A8470546FDB917F0200F22D062
:1036A000238DB3F5066F01D001332385D4F88060F4
:1036B0008EB100231A4621462069B04710F10D0F44
:1036C00011D105460FE00023324601461846FFF7A8
:1036D000C3FF0546E0E72846F0E715F10D0F02D0DD
:1036E00066676FF004052846F8BD000070B5174AFC
:1036F000137801331370164B1C680CE043F002037F
:10370000A376204601F048FDA37E23F00303A376B1
:103710000CE0E5682C46BCB1627F0C4B1B789A42EA
:10372000F7D06377A37E13F0010FE7D1E568636FED
:10373000002BEFD0074E002333702046FFF79EFF8B
:103740003378002BE6D0D6E770BD00BFD13C002017
:10375000904600208C46002008B5FFF7C7FF064AB8
:1037600013780133DBB2137013F0010F00D108BDE1
:10377000FFF7EEFCFBE700BFD03C00202DE9F0474F
:1037800082B00446037D0A2B18D00D46D0F84C8039
:10379000D0F82490D0F88C600769002B39D1B0F8AC
:1037A00016A0BAF1000F3ED0254B1B6898420ED0F0
:1037B0009BB1DA6894420ED01346F9E701462148DE
:1037C000FFF750FE2146012001F0AAFF1EE0DA6853
:1037D0001B4B1A6001E0E268DA600025E560AA464A
:1037E000E06E08B1FFF774FCA06E08B1FFF770FC43
:1037F000206F08B1FFF76CFCBDB92146012001F034
:103800008FFF1EB16FF00C013846B04702B0BDE823
:10381000F087B0F816A001460B48FFF723FE0122FF
:103820000A4B1A70DCE70025DAE7238B0193CDF809
:1038300000A0231D22464946404601F0C7FDDCE7B3
:103840009C460020A0460020904600208C46002088
:1038500008B50121FFF792FF08BD000010B50A4B23
:103860001B680024204600E0DB6843B1196A074A60
:103870001268521A9442F7D814461846F4E708B171
:10388000FFF7E6FF10BD00BFA046002094460020D1
:1038900070B5024610F0800F00D07F220B4B1B68E2
:1038A000002420461BB908B1FFF7D2FF70BD5D7D33
:1038B000AA4208D31E6A06490968891B8C4202D8AD
:1038C0002A460C461846DB68ECE700BF904600200D
:1038D0009446002038B50446084603E0C568FFF763
:1038E000B7FF284628B1026823689A42F6D0C0681C
:1038F000F8E738BD38B50C4B1B6800210D4600E0D9
:10390000DB685BB11A7D9042FAD11C6A074A1268E3
:10391000121B9142F4D811461D46F1E71DB100215A
:103920002846FFF72BFF38BD904600209446002024
:10393000034B1868034A126810441860704700BFB0
:10394000000000209446002038B50546012001F013
:10395000D9FE0446002831D074B3982200212046B5
:103960000AF088F865754FF48663A4F860304FF468
:10397000066363852385FF23A3724FF40673638672
:103980000623A4F84030E3874FF6FF732386012314
:10399000A4F84830FFF7CCFF6065E0646064A06580
:1039A000174B1B682362174B1B786377164BC4F8C1
:1039B0008030164BC4F89030204638BDFFF74EFFDC
:1039C000012001F09FFE04460028C5D10920FFF721
:1039D00091FF012001F096FE04460028BCD108208A
:1039E000FFF788FF012001F08DFE04460028B3D1C7
:1039F0002846FFF74DFF012001F084FE0446ABE7A7
:103A000094460020D13C00205936000800DD6D00AE
:103A100010B504460846FDF7B5FA38B1C38C3BB182
:103A2000283B98B2A04228BF204610BD204610BDBA
:103A3000204610BD08B370B50446036803B970BDD5
:103A40000E460E4B1968FFF745FF0D4B19682046CF
:103A5000FFF740FF002EF2D03368002BEFD0094B68
:103A60001B6800E01346002BE9D0DA681D68206867
:103A70008542F7D131681960F4E77047904600201D
:103A80009C46002098460020704770472DE9F0477B
:103A9000344805F0FFFB002860D1324B998FD3F8F2
:103AA000408049B94FF0000ABAF1000F33D02D4BD6
:103AB0001F6BD146002427E003220420FDF702FDFE
:103AC0008246F1E7D9F8040040F2F452121B08EBE9
:103AD0000401304409F0C3FFFF68D7F80880A5F25D
:103AE000F452361B06F2F4560024A51840F2F453A3
:103AF0009D42E7D8D9F8040008EB0401304409F0EE
:103B0000AEFFD9F800902C46B9F1000F03D0B9F8F8
:103B10000A200026E9E7134B1B6B002105E01A6819
:103B200042F000421A60DB6801310E4A926B91420A
:103B3000F5D30C4B00229A631B6841F214029A5889
:103B400012F0800F07D0802141F214029950002119
:103B500041F2080299505046BDE8F0874FF0000A44
:103B6000F9E700BF745F002038B505464FF0FF311C
:103B70000B4B186807F0FEFF0028F7D101E0002C7E
:103B8000F4D02846FFF782FF04460028F7D02B69BF
:103B9000294698470028F2D02046FDF75FFCEEE763
:103BA000D43C00202DE9F84F8B462C4BDE6AD6F82A
:103BB00008A000242746BBF1000F32D03368002B49
:103BC00035DBBBF80A90002504EB090840F2F453FA
:103BD000984519D9DBF8041040F2F452121B29441D
:103BE0000AEB040009F03BFFF6683368002B21DB89
:103BF000D6F808A0A8F2F4592D1B05F2F4553F1B86
:103C000007F2F4570024DFE7DBF804104A462944A2
:103C10000AEB040009F023FF4F44DBF800B04446F0
:103C2000C9E739460D4805F0A3FA002004E06FF01B
:103C3000070001E06FF00700084B1B6841F2140217
:103C40009A5812F0200F07D0202141F21402995007
:103C5000002141F204029950BDE8F88F745F002002
:103C6000F0B58BB00446002309933D483D4A0260FD
:103C70000122426002828DF81C3080218DF81D10D7
:103C8000E1218DF81E108DF81F308DF820308DF851
:103C9000213007A941618261C3614FF400030362CF
:103CA00005F002FC28B994F82F3043F0040384F89F
:103CB0002F302B4D04232C4A2C49284605F0E9F9D6
:103CC00004232B4A2B49284605F01CFA062384F8C6
:103CD00028306B691A7884F829205A7884F82A20C9
:103CE0009A7884F82B20DA7884F82C201A7984F8D2
:103CF0002D205B7984F82E3040F2DC53E38494F875
:103D00002F3043F00A0384F82F300AA8002340F82C
:103D1000103D012107F01AFF174B186001AE174F35
:103D20000FCF0FC63B683360214601A807F07DFE28
:103D3000284605F0E3FC09AA0B21284605F03EFBC6
:103D4000099A42F00B0209920B21284605F072FBFA
:103D500009AA0B21284605F031FB0BB0F0BD00BFCE
:103D6000745F002000800240BC5F0020A446002059
:103D700024470020F45E0020D43C0020ECE300083F
:103D800002682D4B9A4200D07047F0B589B0A3F578
:103D900090431A6B42F000721A631A6B02F00072C1
:103DA0000092009A1A6B42F080621A631A6B02F05A
:103DB00080620192019A1A6B42F000621A631B6BD7
:103DC00003F000630293029B3223039302270497BC
:103DD00000240594032606960B25079503A917488A
:103DE00009F0D0FC86230393049705940696079563
:103DF00003A9134809F0C6FC4FF40053039304973A
:103E000005940696079503A90E4809F0BBFC4FF4EC
:103E100020530393049705940696079503A90A482F
:103E200009F0B0FC224605213D2002F057FC3D2060
:103E300002F084FC09B0F0BD00800240000802409E
:103E400000000240000402400018024008B5024B86
:103E5000186807F0C9FE08BDD43C002008B57322DD
:103E600080F83020742280F83120044A4261044AEC
:103E70008261FFF7F5FE002008BD00BF91450008F4
:103E8000A53B000808B505F09DFF08BD30B585B01D
:103E900015460024039408230293019100942346BD
:103EA00022462946FCF799FF204605B030BD30B5C3
:103EB00085B00C4619469DF8203090F81D5305B189
:103EC00000230393029201940123009300231A46D6
:103ED000FCF783FF002005B030BD30B585B01D462E
:103EE0000024039402920191012200922346294664
:103EF000FCF773FF204605B030BD30B585B00C46E9
:103F000019469DF8203090F81D5305B10023039306
:103F1000029201940123009302230022FCF75DFF2B
:103F2000002005B030BD30B585B01D460024039497
:103F3000029201910122009202232946FCF74DFFD3
:103F4000204605B030BD000010B5044600EB40022D
:103F5000D300094AD05838B1FDF780FA04EB440287
:103F6000D3000021044AD15004EB4404E200024B88
:103F7000134400221A7510BDD83C00202DE9F84FDB
:103F80004FF0000EF346F1464FF00A0C73466546BB
:103F9000E046E2461BE0C2B140B103EB4306F70046
:103FA000434E3E4476680768B7421FD0012A20D0AE
:103FB000012A0AD904EB4404E6003D4A3244528AFD
:103FC000964502D84FFA83F896460133DBB2092BA7
:103FD0002DD81C4603EB4302D600354A3244127DED
:103FE0000A2D08BF002AD6D15DB2EEE758B2BDE86F
:103FF000F88F04EB4406F2002D4EB2585AB104EB90
:104000004404E6002A4A3244528A9145DDD84FFAE8
:1040100083FC9146D9E704EB4404E600244A324489
:10402000528A9345D1D84FFA83FA9346CDE711F0DF
:10403000020F34D10A2D16D00446092D1ADCEDB238
:104040002B4634B1206805EB4502D100184A0A44DA
:10405000506003EB4303DA00154B134400225A82ED
:1040600068B2BDE8F88F11F0010FE5D14FF0FF30D5
:10407000BDE8F88FB8F1090F05DC5FFA88F528462E
:10408000FFF762FFDCE7BAF1090F02DC5FFA8AF59D
:10409000F5E7BCF1090F06DC5FFA8CF5EFE74FF0AE
:1040A000FF30BDE8F88F4FF0FF30BDE8F88F00BF5C
:1040B000D83C002000293FD0F0B583B004460F461D
:1040C000086800283BD01E461546214605F046FEEE
:1040D000002837D13B6803F0F003E02B35D02246AF
:1040E00031463846FFF74AFF002823DB194E4200CD
:1040F0001318D900771802233B75BC600B460833B0
:1041000033442A685A60AA881A8100237B82765831
:10411000F6B100270F4A57504FF4006300932B4627
:1041200004F129023146204609F078F93046FDF7BE
:1041300095F9384603B0F0BD6FF00F0070476FF08F
:104140000F00F7E76FF00F00F4E76FF00F00F1E7F3
:104150000020EFE7D83C00202DE9F04782B08046F0
:10416000894692461F460B9D00221C210220FDF726
:10417000A9F988B306464468BDF83400FEF729FF64
:10418000E0803B68A360BB88A3812B68C4F8123031
:10419000AB88E3820A9B1B68C4F80E300C9B1B683B
:1041A000A36100252570012363700823A370E570C7
:1041B000062323710423637140F6060300935346DC
:1041C0004A463146404609F029F93046FDF746F99E
:1041D000284602B0BDE8F0874FF0FF30F9E7000055
:1041E00030B585B0034600F1290404330125039559
:1041F000029104490191009323462146FFF7ACFF49
:1042000005B030BDECE5000838B50546002401E0F6
:104210000134E4B2092C10D8204604EB4403DA0040
:10422000064B13441B7D002BF2D0044B13449B68B8
:10423000AB42EDD1FFF788FEEAE738BDD83C00205D
:10424000002964D02DE9F04184B00E46044645684B
:104250002B88B3F5807F05D02046FDF7FFF804B02A
:10426000BDE8F0812B79062BF6D16B79042BF3D1C5
:104270006B88082BF0D1D5F80E300393AF694B68EB
:10428000BBB19F4214BF0027012705F1080897B171
:104290000123424603A93046FFF70CFFEB88B3F534
:1042A000807F0AD0B3F5007F2CD02046FDF7D6F8EA
:1042B000D5E70027E9E70223EBE7002FF5D002203E
:1042C000FEF787FEE880D5F80E30AB617368C5F85D
:1042D0000E3005F11203D8F80020C5F81220B8F806
:1042E00004209A80324652F8291FA9609288A8F8C3
:1042F000042040F60602009242462146304609F06C
:104300008DF8D2E703A9304608F074FECDE7704778
:1043100008B5024AFFF764FF08BD00BFE4E50008E6
:1043200038B5002405E0042B1DD9FFF70DFE01343C
:10433000E4B2092C38D8204604EB4403DA001B4BC6
:1043400013441B7D002BF2D01146184A0A44538AAD
:1043500001339BB25382B3F5967FE6D2134A0A44E7
:10436000127D012ADFD0032A0ED0042A14D0012A9C
:10437000DDD10E4A43001D18E90011440A460431FC
:104380009068FFF7C5FFD2E700EB4000C200074B83
:10439000134404221A75CAE700EB4000C200034B25
:1043A000134402221A75C2E738BD00BFD83C002072
:1043B00070B582B005460E46144602EB4203DA00A1
:1043C000244B13441B7D022B11D004EB4404E30067
:1043D0000833204A13444FF400620092043305F17D
:1043E00029023146284609F019F802B070BD194B70
:1043F00013445B8AB3F58E7F19D8B3F5877FE4D376
:10440000144A63001819C1000846114408300244D8
:10441000043204312846FFF7E3FE0028D5D104EB2F
:104420004403DA000B4B134403221A75CDE704EB67
:104430004402D300074919440431FFF769FF0028FB
:10444000C3D104EB4403DA00024B134403221A7570
:10445000BBE700BFD83C00202DE9F04182B0064602
:104460000D46174600F129080146286805F076FC3C
:10447000002877D12B6803F0F002E02A75D0002DD8
:1044800076D0002B77D0324601212846FFF776FD03
:10449000041E73DB04EB4403DA003B4B13441B7D27
:1044A000EBB91146384A0A44012313759660002F70
:1044B00008BF43F00103A3B94FF0FF3004EB4403FE
:1044C000DA00314B13441B7D012B11D8012B1ED177
:1044D0003B46FBB11A7B012A2ED11B68F9E700236A
:1044E000E5E729463046FFF713FF002FE6D10EE03F
:1044F000264B1C7013460833234A13444FF40062C2
:104500000092043342463946304608F087FF02B035
:10451000BDE8F08100228AB1002219890220FCF74F
:10452000D1FF054670B13946FDF7C1F850B12846B4
:10453000FCF794FF002505E00122ECE73846FDF783
:104540008AF83D46E5B104EB4402D3000E4AD05848
:1045500008B1FCF783FF04EB4404E3000A4AD5509A
:104560000020D4E76FF00F00D1E76FF00F00CEE727
:104570006FF00F00CBE76FF00F00C8E72046C6E7EB
:104580004FF0FF30C3E700BFD83C0020C83D0020FB
:1045900070B584B005460E4614460146106805F015
:1045A000DDFB002862D1236803F0F002E02A20D06E
:1045B0006A68A9685A400A4209D09BB24FF6A962BC
:1045C000934204D0EB68002B5CD005F10C042F4B18
:1045D0001A7802EB4203D9002D4B0B441B7D012BB3
:1045E0003CD920682A4B0B445B68984217D00022C4
:1045F0001CE001238DF8083000238DF809305E237C
:104600008DF80A30637803F07F038DF80B30A378C0
:104610008DF80C30E3788DF80D3002AB27E0314691
:104620002846FFF7C5FE2BE0013252B2092A17DCFB
:1046300002EB4203D900164B0B441B7D012BF3D92F
:104640002068134B0B445B689842EDD1D2B20F4BFC
:104650001A7031462846FFF7ABFE11E00022E5E76D
:10466000324621462846FFF7F7FE09E0094B4FF492
:104670000062009205F129023146284608F0CEFE7C
:1046800004B070BD6FF00300FAE700BFC83D002022
:10469000D83C0020E4E5000810B5D0F87433DC699C
:1046A0002179FCF76DFB0D2801D0022010BDA26F0F
:1046B0000C4B9A4201D0022010BDE26FA36D9A42CA
:1046C00001D0012010BD94F884302BB1012B05D00E
:1046D000022B05D0012010BD002010BD012010BD0F
:1046E000022010BD5553425308B5D0F87433DB692E
:1046F0001AB1012A05D0022008BDD979FDF733FB94
:1047000008BD9979FDF72FFB08BD08B52122027479
:10471000FF224274002141828182C1820A46FDF754
:1047200073FA08BD08B5A1220274FE224274002269
:10473000428282820122C282FDF766FA08BD000031
:10474000D0F87433DB69054A5A65054A9A65012237
:1047500083F8502083F8522000207047555342437D
:104760005040302070B582B00546D0F87433DC6913
:1047700094F85030013B0A2B00F25B81DFE813F024
:104780000B001B0054005F009700A300E900F40039
:104790001B012D014F0184F86110022384F8503071
:1047A0006379012600961F2204F15401FFF7A5FB4F
:1047B000304602B070BD6179FCF72AFB012805D0B4
:1047C00002281CD0052824D00126F1E7E36D5BB157
:1047D00094F96030002B03DB052384F8503006E0A9
:1047E000032384F8503002E0072384F8503000227D
:1047F0000221D5F8C80307F02DFA0126D8E70126D3
:1048000084F8506000220221D5F8C80307F022FA8C
:10481000CEE70A2384F8503000220221D5F8C803DD
:1048200007F018FA0126C3E723796289D4F88C10BF
:10483000FFF779FB042384F850300126B8E721798B
:10484000FCF7E6FA012803D0052825D00126AFE7BA
:10485000E36D6289934211D9D4F88C101144C4F8E5
:104860008C109B1AE365E36D5BB123796289D4F800
:104870008C102846FFF757FB012699E70023E365D4
:10488000F1E7072384F8503000220221D5F8C8034D
:1048900007F0E0F901268BE7092384F85030002265
:1048A0000221D5F8C80307F0D5F9012680E763791E
:1048B0002289D4F88C1001260096FFF71EFB0623F0
:1048C00084F8503074E76179FCF7A2FA012805D02A
:1048D000022828D0052831D0012669E7E36D228916
:1048E000934213D9D4F88C101144C4F88C109B1A3D
:1048F000E365E36D6BB9072384F850300022022191
:10490000D5F8C80307F0A6F9012651E70023E365AF
:10491000EFE763792289D4F88C10012000902846B3
:10492000FFF7EBFAEAE7052384F850300022022172
:10493000D5F8C80307F08EF9012639E70A2384F871
:10494000503000220221D5F8C80307F083F9012670
:104950002EE723790D2204F17801FFF7E4FA08230A
:1049600084F85030012623E72179FCF751FA012819
:1049700003D0052814D001261AE7012384F850300B
:1049800084F852302846FFF787FE38B1022600220D
:104990000221D5F8C80307F05DF909E70026F6E71C
:1049A000092384F8503000220221D5F8C80307F00B
:1049B00051F90126FCE60022FFF796FE18B1042803
:1049C00006D00126F4E6072384F850300126EFE6EE
:1049D0000B2384F850300126EAE60122FFF784FE1B
:1049E00018B1042816D00126E2E661792846FCF7C2
:1049F00034FAC0F10102D2B261792846FCF714FA08
:104A0000002221792846FCF70FFA092384F8503058
:104A10000126CDE60B2384F850300126C8E6FFF7C7
:104A200074FE064600287FF4C3AE012384F850309C
:104A3000BEE60126BCE600000020104A1388591C7F
:104A400011804FF6FF72934209D00D4B1B6893B152
:104A5000598A0A4A1288914206D0DB68F7E74FF478
:104A60004042064B1A80F0E7013080B2B0F5804F2B
:104A7000E3D300207047014B1888704704000020E2
:104A80008C7700206AB1A8B10368ABB1104A5269B3
:104A9000B2F1FF3F12D0896853400B4210D0002082
:104AA000704778B103687BB1094A526993420DD0CF
:104AB0000020704701207047012070470120704797
:104AC0000120704701207047012070470120704786
:104AD00030460020704700002DE9F04F85B0814638
:104AE0004389072B17D90F464468424B1968586908
:104AF00005F034F980462088FEF76BFA824660881C
:104B0000FEF767FA06463C4B1B6803931C464FF0C2
:104B1000000B5D4609E0FCF7A1FC05B0BDE8F08F95
:104B2000A38A9A4515D02546E468FCB1638A9E4263
:104B3000F9D1424639462046FFF7A4FF0028F2D0BB
:104B4000237C13F0040FEBD1BBF1000FE8D1A34697
:104B5000E6E763681BB1274A12699342E3D12DB19E
:104B6000E368EB60039BE360234B1C60A4B1ACB132
:104B70000123002B3AD06FF007014846FCF764FC94
:104B8000A0B9DCB1A569ADB1E069CDF800A01B4BBF
:104B90004A462146A847C0E75C46E8E77B68154AD5
:104BA0005269934214BF00230123E2E74846FCF711
:104BB00055FCB2E74846FCF751FCAEE7B8F1000FF0
:104BC00010D10C4B5B6903F0F003E02B0AD0094BCA
:104BD0009989083109B24846FCF73BFC0321484655
:104BE00007F004FB4846FCF739FC96E74846FCF71B
:104BF00035FC92E7304600208C77002040460020AC
:104C000070B504460D4659B1002D18BF002C2DD0AB
:104C10001A4B1B68194629B1A14214D0C968FAE79A
:104C2000174DF1E700268AB9FFF706FF024600B3E9
:104C3000D5B12B6823606282F6B9104B1A68E26026
:104C40001C60002070BD0126EDE7DB68002BEFD073
:104C5000A342FAD0598A8A42F7D118682968884253
:104C6000F3D16FF0070070BD0023E3E76FF005009C
:104C700070BD6FF0070070BD002070BD8C77002004
:104C800078E500082DE9F04385B0002A18BF002818
:104C900043D00446904699460D46428A22B90146C1
:104CA000FFF7AEFF0646A0BB08212846FCF7CCFB69
:104CB00060B1002208210120FCF704FC074678B30C
:104CC0002B8923B12946FCF7EAFC00E02F467E68D9
:104CD000608AFEF77EF930804846FEF77AF97080E8
:104CE0000023B371F3713889FEF773F9B080A37AAA
:104CF000627A0C99029111210191009242460D991C
:104D00003846FCF77FFA0646AF4202D03846FCF739
:104D1000A5FB304605B0BDE8F0836FF00506F8E767
:104D20004FF0FF36F5E7F0B583B0089E002A18BFB4
:104D3000002816D00446154650B1026842B102F070
:104D4000F000E02804D0706882420DD1274600E0D0
:104D5000371D2A46204601970096FFF793FF03B0C0
:104D6000F0BD6FF00500FAE76FF00500F7E700000F
:104D7000002918BF002824D070B504460D461646F9
:104D8000428A7AB1ADB12B686360A682237C43F07E
:104D9000040323740E4B1A68134663B1A34214D064
:104DA000DB68FAE70146FFF72BFF03460028E9D04E
:104DB00005E00023E8E7E260054B1C60002318468D
:104DC00070BD6FF00503184670470023F7E700BF7A
:104DD0008C7700208161C2617047000008B50146F0
:104DE0000B4B1A68824209D1D2681A6001E0CB6885
:104DF000D360002000F094FC08BD1A46002AF8D0C9
:104E0000D368002BF9D09942F1D01A46F6E700BFDB
:104E10008C77002010B5002000F074FC044628B107
:104E20002022002108F026FEFF23A372204610BD99
:104E3000A0B110B40446036873B169B10B685BB1EB
:104E4000074B1B6800E0DB6833B1186822689042AA
:104E5000F9D10A681A60F6E75DF8044B704700BFA5
:104E60008C7700202DE9F04780460F46154699467D
:104E70009DF820A01AF0010F36D00426032000F080
:104E800041FC044690B380F80AA000230360476009
:104E90003B899B1B038114213846FCF7D5FA48BB9C
:104EA00063685F68E760B8F81600FEF792F838802C
:104EB000E768B8F81800FEF78CF87880E76848468D
:104EC000FEF78CF87860E768B008053045EA0030F6
:104ED00000B280B2FEF77DF8B881E36800229A74D0
:104EE000DA742046BDE8F0870026C7E73846FCF7AD
:104EF000B5FAF6E72046FEF7DEF80024F1E72DE9E3
:104F0000F04106460C469846114489B214310022FD
:104F100089B20120FCF7D6FA074620B34568F08A2B
:104F2000FEF757F82880308BFEF753F86880C5F8F5
:104F30000480706AFEF752F8A860A00805300003EC
:104F400080B240F01000FEF744F8A881708DFEF7A3
:104F500040F8E88100232B746B74AB74EB74736AB4
:104F6000728D1344F3623846BDE8F0814368DB89F3
:104F7000012B01D000207047F0B585B016460D46D4
:104F80000446C768486AFEF729F8B860E768688D84
:104F9000FEF71FF8F8816B6A6A8D1344EB62E768CD
:104FA000A37A13F0010F26D1B5F93030002B2DDB99
:104FB0006B6B002B2DD0E368626851685B1A9BB263
:104FC0005189C91A518161680A89D31A0B816368B2
:104FD000E2685A60E36800221A745A746068AB7A17
:104FE0006A7A02960621019100922A1D2946FCF751
:104FF00065F905B0F0BD291D4FF40670FEF708FDF8
:1050000040F00170FDF7EAFF7861CDE700232B86C1
:10501000CEE7044B1B686B63E3685868FDF7DEFF5F
:10502000A863C8E794460020F0B583B00D4601F0B0
:105030000307B0F86230082B02D911F0010F18D025
:1050400015F0020F1CD10026E6B10421044600220F
:105050001046FCF737FA0146B0B10096A36D2A4618
:105060002046FFF7FFFE0146A8B1A26EDAB9A0669E
:105070001DE0837E63F07F0383764FF0FF302DE0E9
:105080000126E1E70021E1E7A37E63F07F03A37639
:105090004FF0FF3022E0A37E63F07F03A3764FF052
:1050A000FF301BE01A461368002BFBD11160002370
:1050B000A4F8643017B1A36D0133A36515F0010F97
:1050C00003D0A37E43F02003A3764868FCF7BAFA26
:1050D000B4F862301844A4F86200002003B0F0BDB8
:1050E00070B50546846E0CB90AE01C462368002B97
:1050F000FBD1E3689889FDF76CFF10F0070F04D02F
:1051000001212846FFF790FF70BDE668B4890120B1
:10511000FDF75FFF2043B081AB7E43F02003AB7609
:10512000002070BD70B584B00446C06CFDF756FF1A
:105130000346002211462046FFF7E1FEE0B1064695
:10514000251D2846FBF71EFFE8B1A37A617A02907D
:105150000622019200912A4621463046FCF7AEF81D
:1051600005463046FCF77AF985B9A37E23F00303A0
:10517000A376284604B070BDA37E43F00303A37654
:105180006FF00105F5E76FF00305EAE7A37E43F052
:105190000303A376EDE700008B4B1B68984200F0F9
:1051A0000A812DE9F047B0F85C30B0F84870BB4296
:1051B00000D21F460546846E837E13F0020F0AD08C
:1051C00064B1E3685868FDF709FF6B6CC31A208966
:1051D00003449F4202D3EE6E36B908E02846FFF73B
:1051E000A1FF0346E1E01E463368002BFBD1281DDA
:1051F000FBF7C8FE8046002800F0E08015B12B6860
:10520000002B77D118F1040F00F0DB80D8F80430C0
:105210002B606FE01A896B8E9A4280F08C80B5F813
:105220006030002B00F08980B5F86230082B40F226
:105230008680012302E0012300E0012323B9AB7E35
:1052400013F0A00F00F0AA802B7D022B0AD0D4F817
:105250000CA0BAF80C901020FDF7BBFE49EA000044
:10526000AAF80C00424629462046FFF77FFE034677
:10527000002866D12368AB662B7D022B03D0AB7E62
:1052800023F00303AB76E3685868FDF7A7FE814679
:10529000B4F808A0E3689889FDF79BFE10F0030FAF
:1052A00054D0012050444844EB6C1B1A002B4FDBB8
:1052B000B4F80890E3689889FDF78BFE10F0030FAF
:1052C00048D0012313EB090F64D000232360EB6E59
:1052D000002B41D0E3685868FDF780FE8146F368F3
:1052E0005868FDF77BFEA9EB0000002837DB34602F
:1052F0002646AC6E002C51D0E3685868FDF76EFE70
:105300006B6CC01A23891844874247D3E368988995
:10531000FDF75FFEEB6E002B8DD0AB7E13F0440FDC
:105320008BD1AB6E002B3FF47AAF1A68002A3FF4A2
:1053300071AF012382E7012380E701237EE7002389
:105340007CE7AA7E62F07F02AA762EE00020A9E721
:10535000E864ADE70023B5E7EC662646C9E705F14A
:105360006C0A01E0DAF800A0DAF8003063B1DB681B
:105370005868FDF733FE8146E3685868FDF72EFE56
:10538000A9EB00000028EDDBDAF800302360CAF852
:105390000040AEE72046FDF78EFEAAE7AB6E3BB1BC
:1053A000AB7E03F07F03AB7600231846BDE8F087A1
:1053B000A5F86430F4E70023184670476FF0030344
:1053C000F3E76FF00303F0E74CA800202DE9F0436A
:1053D00085B080460F4691461E46002214210120CA
:1053E000FCF770F898B305464468BDF83000FDF747
:1053F000F0FD2080BDF83400FDF7EBFD60804046F5
:10540000FDF7ECFD60603846FDF7E8FDA06045F271
:105410001400FDF7DEFDA08100230822A2736022A4
:10542000E27323746374A374E3743046FBF7AAFD3C
:1054300050B102900623019300230093FF233246CC
:1054400049462846FBF73AFF2846FCF707F805B01F
:10545000BDE8F083C26E0AB108B501E070471A4694
:105460001368002BFBD1836E1360C36E836600222A
:10547000C26690F84230013380F842304263FFF751
:105480008BFE08BDF8B5C66E06B307463368C36623
:1054900000F1680500E02D682B685BB1DB68586897
:1054A000FDF79CFD0446F3685868FDF797FD201A48
:1054B0000028F0DB2B6833602E6033683BB197F82F
:1054C0004230013387F8423000237B63F8BDA7F8F0
:1054D0006430F4E7C36E1BB1837E13F0040F00D079
:1054E000704710B50446FFF7CDFFB4F84830B4F864
:1054F0005C2093421AD95208A4F84A20B4F84A20F2
:10550000638EB2EB430F02D25A00A4F84A20B4F8DB
:105510004A2003EB430312FA83F3A4F84830A37E36
:1055200043F00403A3760023238610BD5B08A4F890
:105530004A30E3E770B584B00446C06C0138FDF72B
:105540004DFD0346002211462046FFF7D8FCD0B19E
:105550000546261D3046FBF715FD88B1A37A02905B
:105560000622019200220092324621462846FBF78D
:10557000A5FE04462846FBF771FF204604B070BD27
:105580006FF00304F6E74FF0FF34F6E72DE9F04142
:1055900084B0C56E75B1002D5DD00446EB68988966
:1055A000FDF717FD10F0010F06D02B89002B40D01E
:1055B000002202E0856EEEE7002202F0FF06EB68B3
:1055C0005B6882F0010200212046FFF798FC074645
:1055D000002842D0D0F804806EB3B8F80C6026F4EE
:1055E0007C56B6B21120FDF7F4FC3043A8F80C004D
:1055F000EB685868FDF7F2FC0130E36C1B1A002BD6
:1056000024DB251D2846FBF7BDFC08B3A37A0290D6
:1056100006220192002200922A4621463846FBF7D4
:105620004DFE04463846FBF719FF204604B0BDE89E
:10563000F0810122C1E7686803892A899B1A9BB21D
:10564000012208F11401FCF795F8D1E7E064D8E7EE
:105650006FF00304E6E70024E7E74FF0FF34E4E7E8
:1056600008B500F0C5F803F01FFA00F03BF807F0AA
:1056700072FFFFF72FFAFDF7D9FC06F0A1FC08BD79
:1056800010B5044600F0F0F8A3681C682CB122683D
:105690001A6000F0F5F8204610BD00F0F1F8002087
:1056A00010BD38B505460C4600F0DEF8AB681B6847
:1056B0002360AB681C6000F0E3F838BD836800220B
:1056C0001A604368033323F0030307E08168096825
:1056D000196081680B6001880B44013241888A425D
:1056E000F4DB704710B5002406E0054B53F82400A6
:1056F000FFF7E4FF0134A4B20C2CF6D910BD00BFB3
:105700000CE500080C2806D808B5044B53F8200017
:10571000FFF7B6FF08BD0020704700BF0CE500088A
:105720000C2807D831B108B5034B53F82000FFF718
:10573000B8FF08BD704700BF0CE5000810B582B087
:1057400004460091042301930021684606F07AFA8A
:10575000206010B1002002B010BD4FF0FF30FAE71A
:1057600038B505460C464FF0FF322146286806F052
:1057700071FA0028F7D138BD08B50022006806F09C
:1057800069FA00B908BD4FF0FF30FBE7F0B589B00A
:1057900006460F46154606F03EF9044685B12A46F0
:1057A000316805A806F08AFA059B102B02D04FF04D
:1057B000FF3015E0069B3B6006F02DF9001B0FE063
:1057C0004FF0FF323168684606F078FA9DE807002E
:1057D00008AB03E90700069B3B6006F01CF9001BC1
:1057E00009B0F0BD03680BB101207047002070477D
:1057F00008B5034806F03CF9024B186008BD00BF2D
:1058000040E5000848A8002010B582B0044602A870
:10581000002340F8043D06F02BF9206010B1002071
:1058200002B010BD4FF0FF30FAE708B54FF0FF317E
:10583000006806F023F908BD08B5006806F058F9BD
:1058400008BD00B587B001900291BDF92010ADF8F8
:105850000C10002104910593114601A806F0E5F80B
:1058600007B05DF804FB000008B54FF0FF31034BB3
:10587000186806F003F9012008BD00BF48A8002001
:1058800008B5024B186806F033F908BD48A8002097
:105890000D4B1B68B3F1FF3F0AD04FF0500372B6B7
:1058A00083F31188BFF36F8FBFF34F8F62B6FEE7AC
:1058B0004FF0500372B683F31188BFF36F8FBFF3BD
:1058C0004F8F62B6FEE700BF080000200648006860
:1058D000006880F3088862B661B6BFF34F8FBFF3EC
:1058E0006F8F00DF00BF000008ED00E0DFF80C0064
:1058F000016841F4700101607047000088ED00E02C
:105900004FF0807340F8043C21F0010140F8081C7E
:10591000054B40F80C3C40F8202C6FF0020340F897
:10592000243C4438704700BF915800080000000034
:10593000074B19680868B0E8F04F80F30988BFF397
:105940006F8F4FF0000080F311887047AFF3008035
:10595000683E00204FF0500372B683F31188BFF306
:105960006F8FBFF34F8F62B60B4A1368013313601A
:10597000012B0FD1094B1B6813F0FF0F0AD04FF01A
:10598000500372B683F31188BFF36F8FBFF34F8F4D
:1059900062B6FEE7704700BF0800002004ED00E09B
:1059A0000A4B1B6853B94FF0500372B683F311884A
:1059B000BFF36F8FBFF34F8F62B6FEE7013B034A21
:1059C00013600BB983F31188704700BF08000020F3
:1059D000EFF30980BFF36F8F154B1A681EF0100F9D
:1059E00008BF20ED108A20E9F04F10604DF8043D0B
:1059F0004FF0500072B680F31188BFF34F8FBFF3A2
:105A00006F8F62B604F094FE4FF0000080F31188AF
:105A100008BC19680868B0E8F04F1EF0100F08BF06
:105A2000B0EC108A80F30988BFF36F8F704700BF16
:105A3000683E002008B54FF0500372B683F311881A
:105A4000BFF36F8FBFF34F8F62B604F0F3FC18B152
:105A50004FF08052024B1A60002383F3118808BD77
:105A600004ED00E0064B1B68064AA2FB03239B09DA
:105A7000013B054A13600722044B1A60704700BFC0
:105A80002C000020D34D621014E000E010E000E094
:105A900000B583B0224B1A78D2B20192FF221A705D
:105AA0001B78DBB28DF803309DF8033003F0500310
:105AB0001C4A137007221C4B1A6009E01A4A13682B
:105AC000013B13609DF803305B00DBB28DF80330BF
:105AD0009DF8033013F0800FF0D1134A13681B02B6
